:020000040000fa
:080000000002040000000000f2
:020000040000fa
:100008007c0500007c0500007c0500007c050000e4
:100018007c0500007c0500007c0500007c050000d4
:100028007c0500007c0500007c0500007c050000c4
:100038007c0500007c0500007c0500007c050000b4
:100048007c0500007c0500007c0500009a02000089
:100058007c0500007c0500007c0500007c05000094
:100068007c0500007c0500007c0500007c05000084
:100078007c0500007c0500007c0500007c05000074
:100088007c0500007c0500007c0500007c05000064
:100098007c0500007c050000c40200007c0500000f
:1000a8007c0500007c0500007c0500007c05000044
:1000b8007c0500007c0500007c0500007c05000034
:1000c8007c0500007c0500007c0500007c05000024
:1000d8007c0500007c0500007c0500007c05000014
:1000e8007c0500007c0500007c0500007c05000004
:1000f8007c0500007c0500007c0500007c050000f4
:100108007c0500007c0500007c0500007c050000e3
:100118007c0500007c0500007c0500007c050000d3
:100128007c0500007c0500007c0500007c050000c3
:100138007c0500007c0500007c0500007c050000b3
:100148007c0500007c0500007c0500007c050000a3
:100158007c0500007c0500007c0500007c05000093
:100168007c0500007c0500007c0500007c05000083
:100178007c0500007c0500007c0500007c05000073
:100188007c0500007c0500007c0500007c05000063
:100198007c0500007c0500007c0500007c05000053
:1001a8007c0500007c0500007c0500007c05000043
:1001b8007c0500007c0500007c0500007c05000033
:1001c8007c0500007c0500007c0500007c05000023
:1001d8007c0500007c0500007c0500007c05000013
:1001e8007c0500007c0500007c0500007c05000003
:0801f8007c0500007c050000fd
:020000040000fa
:100208007c0500007c0500007c0500007c050000e2
:100218007c0500007c0500007c0500007c050000d2
:100228007c0500007c0500007c0500007c050000c2
:100238007c0500007c0500007c0500007c050000b2
:100248007c0500007c0500007c0500009a02000087
:100258007c0500007c0500007c0500007c05000092
:100268007c0500007c0500007c0500007c05000082
:100278007c0500007c0500007c0500007c05000072
:100288007c0500007c0500007c0500007c05000062
:100298007c0500007c050000c40200007c0500000d
:1002a8007c0500007c0500007c0500007c05000042
:1002b8007c0500007c0500007c0500007c05000032
:1002c8007c0500007c0500007c0500007c05000022
:1002d8007c0500007c0500007c0500007c05000012
:1002e8007c0500007c0500007c0500007c05000002
:1002f8007c0500007c0500007c0500007c050000f2
:100308007c0500007c0500007c0500007c050000e1
:100318007c0500007c0500007c0500007c050000d1
:100328007c0500007c0500007c0500007c050000c1
:100338007c0500007c0500007c0500007c050000b1
:100348007c0500007c0500007c0500007c050000a1
:100358007c0500007c0500007c0500007c05000091
:100368007c0500007c0500007c0500007c05000081
:100378007c0500007c0500007c0500007c05000071
:100388007c0500007c0500007c0500007c05000061
:100398007c0500007c0500007c0500007c05000051
:1003a8007c0500007c0500007c0500007c05000041
:1003b8007c0500007c0500007c0500007c05000031
:1003c8007c0500007c0500007c0500007c05000021
:1003d8007c0500007c0500007c0500007c05000011
:1003e8007c0500007c0500007c0500007c05000001
:0803f8007c0500007c050000fb
:020000040000fa
:100400006f9220000edf20000e0188000000000027
:10041000000020000000e000020032000001200087
:10042000200288000c00070040c8200001002000c6
:1004300011000700000020000000e0000200320070
:100440000000020000000000f804020000000000ac
:100450000040da000000fe004440a900e003200054
:100460000000e0000300320000002000a00188002e
:100470004440a80000000600910188008000780038
:100480000000eb0015003700e280400032a0b4000d
:100490009101ba00e280400032a0b4009102ba009b
:1004a000e280400032a0b4000002eb00472bde00e7
:1004b000f507b200602ce10004003a000059eb009f
:1004c0008301e900fdff3e00040037006128e100e0
:1004d000010032000082eb00040007001101ba00a5
:1004e0000200e000e8ff3a00000006003159ba00bf
:1004f0008301e9000c0032002159ba008301e900b0
:10050000080032000400e00003003a00e2804000ee
:1005100032a0b400f5ff370011d9ba008301e90019
:10052000faff3a008100e800e180400032a0b40008
:1005300000000600849fbe000200fa003411800013
:10054000044f780014418000e80f5200020034008c
:100550008560a90009003700144180000402e8000a
:10056000144188001541800004802000048242006c
:100570001e4a78008560a9008560a9000080fa0005
:100580004f02be0000400600849fbe000200fa0039
:10059000b4118000044f780024418000ed0f520018
:1005a0000200340087c0a900090037002441800000
:1005b0000402e8002441880025418000a480200036
:1005c000048242001e4a780087c0a9000000000093
:1005d0000080fa004f02be00004006001400fa003e
:1005e000209628009d040700843e2000050020007e
:1005f0002407980035079800160037005453200050
:1006000005002000048fbe001e0290001e02720032
:1006100004f0a7000402ea000402ea004f22de0010
:10062000044278000083eb008083eb001e0f430040
:100630005e974b00e04f5200f3ff3a002e0290000d
:10064000be02900061025200e0825a002407980026
:10065000350798002e029000be029000e00f520075
:10066000e08f5a00e5ff3a00609628007b040700ff
:10067000843e20000500200064079800750798005c
:100680001a0037005453200005002000440798004a
:1006900055079800ce0290005e029000050272009d
:1006a00004f0a7000402ea000402ea004f22de0080
:1006b000044378004e029000de0290006102520076
:1006c000e0825a004407980055079800e04f530015
:1006d000f0ff3a006e029000fe02900061025200ac
:1006e000e0825a0064079800750798006e02900037
:1006f000fe029000e00f5200e08f5a00e1ff3a0046
:10070000c096280055040700d1002000a0802000da
:10071000d102070000027800040f98008e0a9000b2
:10072000a48020006102120004824200140f98008d
:100730009e0a9000a48020000482420082002000d3
:100740008400780090812000cd0207000080fa002c
:10075000000006003400fa00ff030700209728007d
:10076000e7030700843e20000500200024079800ce
:10077000350798001600370054532000050020006c
:10078000048fbe001e0290001e02720004f0a7003b
:100790000402ea000402ea004f22de00044278006c
:1007a0000083eb008083eb001e0f43005e974b003d
:1007b000e04f5200f3ff3a002e029000be0290007c
:1007c00061025200e0825a00240798003507980021
:1007d0002e029000be029000e00f5200e08f5a00ff
:1007e000e5ff3a000702200087034700049828002d
:1007f00009000900b45b7800040220000e024200e8
:1008000004007800be030700441f200005002000fc
:1008100064079800750798001a00370054532000a9
:10082000050020004407980055079800ce0290006c
:100830005e0290000502720004f0a7000402ea00c4
:100840000402ea004f22de00044378004e029000ca
:10085000de02900061025200e0825a0044079800d4
:1008600055079800e04f5300f0ff3a006e029000e9
:10087000fe02900061025200e0825a006407980074
:10088000750798006e029000fe029000e00f520083
:10089000e08f5a00e1ff3a009081200098030700a2
:1008a000441f200005002000240f9800350f9800f9
:1008b0001a0037005453200005002000040f980050
:1008c000150f98008e0a90001e0a90000502720013
:1008d00004f0a7000402ea000402ea004f22de004e
:1008e000044378000e0a90009e0a900061025200b4
:1008f000e0825a00040f9800150f9800e04f530053
:10090000f0ff3a002e0a9000be0a900061025200e9
:10091000e0825a00240f9800350f98002e0a9000ac
:10092000be0a9000e00f5200e08f5a00e1ff3a004b
:10093000a502200085024700a698280009000900aa
:10094000b65a7800a40220000e024200040078008b
:100950006b030700843e200005002000640f980010
:10096000750f98001a00370054532000050020002e
:10097000440f9800550f9800ce0a90005e0a900030
:100980000502720004f0a7000402ea000402ea0073
:100990004f22de00044378004e0a9000de0a9000e9
:1009a00061025200e0825a00440f9800550f9800ef
:1009b000e04f5300f0ff3a006e0a9000fe0a9000ec
:1009c00061025200e0825a00640f9800750f98008f
:1009d0006e0a9000fe0a9000e00f5200e08f5a006d
:1009e000e1ff3a00610307000080fa000000060002
:1009f0000400fa004182200090812000ad0307002e
:100a000041822000a0802000aa030700c00020002f
:100a10008103070090012000280307004802070017
:100a20002182200000802000a20307009903070014
:100a3000740307000100370000000000144180002b
:100a4000e80f5200fcff340043030700f1002000d0
:100a5000020020000302240010002000730207009f
:100a600000427800044f7800f100200002002000ce
:100a7000030224000000eb006c0207000042780033
:100a800014479800f1002000020020000302240017
:100a900040002000650207000042780024479800cb
:100aa000e4c7b3000443780095802000864a7800ac
:100ab0009e42780084802000054a78001e42900003
:100ac00076802000044b78002e4390006580200043
:100ad000864a780000802000600307006d0307004d
:100ae0002182200000802000720307001f030700fe
:100af00044030700d1ff37000040da000000fe0089
:100b00000000fa0015118000041020000482620029
:100b100004f0a7000402ea000402e9004f22de000c
:100b200004427800044078000080fa0000000600cb
:100b30000000fa0095118000041020000482620079
:100b400004f0a7000402ea000402e9004f22de00dc
:100b500004427800044078000080fa00000006009b
:100b60000400fa00100798001e029000040f78009d
:100b70000411800066026200e60f52001e003a0077
:100b80000c00370000000000151180000420200038
:100b900004826200e00f5200fbff3a001e02900048
:100ba00014027800241188001e0290000482e800dc
:100bb000140798001e02900014027800e00f520003
:100bc000f0ff3a001100370000000000151180000e
:100bd0000420200004826200e00f5200fbff3a0074
:100be0001e027800144278000402fb0024118800e1
:100bf0001e0fe80001003700000000001e02780010
:100c000014427800e04f5200efff3a000080fa00f3
:100c1000000006000400fa00100798001e02900071
:100c2000040f78008411800066026200e60f520013
:100c30001e003a000c0037000000000095118000f3
:100c40000420200004826200e00f5200fbff3a0003
:100c50001e02900014027800a41188001e02900069
:100c60000482e800140798001e0290001402780025
:100c7000e00f5200f0ff3a001100370000000000c2
:100c8000951180000420200004826200e00f5200d1
:100c9000fbff3a001e027800144278000402fb00b9
:100ca000a41188001e0fe8000100370000000000ba
:100cb0001e02780014427800e04f5200efff3a0025
:100cc0000080fa00000006000200fa00000f780021
:100cd0000411800066026200e60f520003003a0031
:100ce0001e0278002411880003003700f40f200052
:100cf0001e026200241188000080fa000000060035
:100d00000200fa00000f7800841180006602620081
:100d1000e60f520003003a001e027800a41188007a
:100d200003003700f40f20001e026200a4118800a7
:100d30000080fa000000060003f0a200889fbe00b9
:100d40008a9fbe008c1f7800b8000700bf003300e8
:100d50006450e1004f0032006420e1005200320094
:100d600003826c0007003b000905d0000306d00099
:100d7000820f54000c065d000200390002003200b0
:100d800089017800030678008582550004003d0043
:100d90000003fd008103fd008502ea008b8542000f
:100da000840f720002003b0060001000e080180019
:100db0006011b8000005eb007a28e1000a00390054
:100dc00006007800c75ddd00f707b2008780750078
:100dd0002d003700828171000a01780061056000f2
:100de0008180d1000080d3008502e900f9ff3b003b
:100df000060440008784480002003b0060041400a1
:100e0000e0841c000988a300070032008a81710079
:100e100082817100610164008904d1000884d300db
:100e20008b05e800170037000978a30013003a008b
:100e30000b00e000130034008b05e90008044400b7
:100e400089844c000a4474000978a3000d003a001c
:100e50000b00e000070034008b05e90008044400a3
:100e600089844c0001003a000b0020000978a3009f
:100e7000f7ff32000001eb000200370082817100b1
:100e80000a0178002e0007000cf0a70001f0a00076
:100e9000770037006420e10002003a00838f6c0085
:100ea000770033000801be000200be00700037006a
:100eb0000001be00480007000470a70003f0a10075
:100ec0006509b100160032000d0035006828e10008
:100ed00006003500f0ff2f00f1ff27000300e000bf
:100ee00013003b0001002800000005000000400046
:100ef000818048008502e900fcff3a0008003700c5
:100f0000f88f420002003c008000eb00000005006a
:100f10008100d1000080d3008502e800fcff3a0088
:100f20000300e00002003b0060001000e0801800b9
:100f3000000006004f89de0082017800870037003c
:100f400081002000618055000b003d000b00200057
:100f500061fe2f000100e1001d003400828171005c
:100f6000610164008904d1000884d3000000e80016
:100f7000faff3a0071002000610064000300700075
:100f8000020060000900320061044400e0844c006b
:100f90000988a500050032008b05e8006808e1001b
:100fa00002003a008904d1000884d300f20f200027
:100fb0000258e10005003d00c75ddd00f907b20001
:100fc0008980750008007800000006000bf82700f3
:100fd0008b00780000000500c70ade00f107b200b0
:100fe000f50fb20008003200e1cf420002003200eb
:100ff0000170a00024000500810f70000100320084
:101000000408050044000500810f700002003a004a
:10101000140005008502e9000000400081c048007e
:10102000fcff3b000170a000240005000004be008e
:10103000e9ff07000003be000405be000200be0079
:10104000e5ff0700844f7500000006000200be00a7
:101050006450e100050036006420e1000200360023
:101060000968a30001003a000800be000160a0006a
:101070004f0678004f05be004f04be00000006007a
:10108000f0ff2f00f1ff2700f9ff3700889fbe0017
:101090008a9fbe008c1f7800e4ff0700ebff33003f
:1010a00003866c006450e100240032006420e100fb
:1010b000270032006150e100220032006120e1008f
:1010c000210032008b854200eb07b1000134b800eb
:1010d000003ab8000804420089844a00013ab80086
:1010e0000030b8008880400009014a000400330045
:1010f0000000400081804800020149008b05e900a2
:10110000c909dd00830170000100320013002000d6
:10111000c814de004814dd004709de001200b200ea
:10112000c808de000884700085ff070001f0a100f8
:101130000cf0a70001f0a000cdff37006120e10016
:10114000cfff32000801be000200be00f7ff3700eb
:101150006150e100fcff3a00c9ff3700881f7800aa
:10116000030478000300e00007003d006000100069
:10117000e080180060011900e081190002003b00c6
:1011800001f02d00030037000400070008f0a7005d
:1011900001f0a0004f04780000000600889fbe0008
:1011a0008a9fbe00008270000402710004827100f8
:1011b000260032000004be000200be006011b8002c
:1011c0006b092000950220000182cf000a0039003f
:1011d0000541b1000082cf00070039000541b10090
:1011e0000982cf00040039000541b1000882cf0018
:1011f000010039000541b1000542520012003200e1
:101200000a003b0082817100610164008100d1000d
:101210000080d3008984d3000884d3008b05e800c4
:101220000442e800f7ff3a000700370008044400d2
:1012300089844c0000004800818048008b05e9004b
:101240000442e900f9ff3a003dff07004f05be00e8
:101250004f04be0000000600000278000400780081
:1012600000027800b442780081cf520003003200bf
:10127000e0cf5200f9ff3a000000eb00000006004a
:101280000002780006003700314378000201e900cf
:10129000065a780084027800e04f530006003200be
:1012a00084027800e00f5100f7ff3a000200370097
:1012b000805aeb000201e900e00f5100fcff3a0008
:0412c0000000060024
:020000040000fa
:1012c4002b2b00002b00000041540000534c000065
:1012d4000d00000041540000434e00000d000000ca
:1012e400415400002b430000574d00004f440000c0
:1012f400453d0000330d00000a0000004154000089
:101304002b43000057530000415000003d220000d1
:10131400222c0000222200002c3100002c3000007e
:101324000d0a0000415400002b430000574c0000fc
:0c133400415000000d0a00000000000005
:020000040000fa
:101340000000fa00c4f72f0064198800040e200082
:101350000419880004f0200024198800c403200028
:10136000141988000080fa00000006000800fa0046
:10137000300798003e0290004419880021e3a8003d
:101380000002eb00040f78000430200024079800ce
:1013900085a0a9002043a8000000000025048000cb
:1013a0000400220004826200e00f5200fbff3200c2
:1013b0002043a9000002eb00140798000900370041
:1013c0002e029000140278001e0f42002e029000a0
:1013d0000482e800240798001e0290000402e8003e
:1013e000140798001e029000ef0f5200f4ff340023
:1013f0001e02780044a2de00040f78001e0278006e
:10140000040078000080fa00000006000200fa00e4
:10141000000f78001e02780004f0a7000402ea0022
:10142000040078000080fa00000006002a00fa009c
:10143000889fbe008a9fbe008c9fbe001017980038
:101440002217980033179800411798000002eb000c
:10145000040f78000002eb00140798000002eb0074
:10146000640798000002eb00040f78002d0037009d
:101470001e109000bdff0700800278001e02780059
:1014800004024200040247006e024200050a78008e
:10149000a40020000500200044079800550798008c
:1014a0001a0037005453200005002000240798003c
:1014b00035079800ae0290003e02900005027200cf
:1014c00004f0a7000402ea000402ea004f22de0052
:1014d000044378002e029000be0290006102520088
:1014e000e0825a002407980035079800e04f530027
:1014f000f0ff3a004e029000de02900061025200be
:10150000e0825a0044079800550798004e02900068
:10151000de029000e00f5200e08f5a00e1ff3a0037
:101520001e0fe8001e027800e40f5200d0ff3400c6
:101530000002eb00040f7800390037001e0278002b
:10154000040242000402470074029000cfa2de00b1
:101550000400be0077fe07000004be001e027800f3
:10156000040242000402470074029000cfa2de0091
:101570000400be006ffe07000002be002e119000a6
:10158000be1190000400be00c0fe07000002be00b5
:101590000405be001e10900074ff070000027800d2
:1015a000cfa2de000400be0062fe07000006be00ff
:1015b0002e119000be1190000000200001f82300c1
:1015c000ddfd07000002be000401be000c00be00ed
:1015d000aefe07000002be000401be000a00be000d
:1015e000d6fd07000002be000401be000800be00d8
:1015f000d1fd07000002be000400be002cfe070063
:101600000002be00840278001e027800040242003c
:101610000402470078024200050a78001e0fe80025
:101620001e027800e40f5200c4ff34000002eb00f9
:10163000040f78000b0037001e02780004024200fd
:1016400004024700440a9000040078006fff07007e
:10165000000278009e029000048242001407980065
:101660001e0fe8001e027800e40f5200f2ff340063
:101670009e02900054002000110009008402d8004e
:101680000002780064079800ee0290004e1290006d
:10169000848f52000200350094c5b300010037006a
:1016a000e4c4b300044078004f06be004f05be00fe
:1016b0004f04be000080fa00000006000200fa009d
:1016c000000f7800c4f72f0064198800c842a800f2
:1016d000c8e2a9000002eb00041188000002eb0040
:1016e000141188001e027800441188009560a8003b
:1016f00021e2a8002342a8000080fa0000000600b2
:101700000200fa00000f78001e0278000400780042
:1017100013fd07000080fa00000006000200fa0036
:10172000004f78001e02fb000400780066fd0700f1
:101730000080fa00000006000000fa00000000002f
:10174000effc070000427800e04f5200fcff3a0037
:101750000080fa00000006000000fa009560a90071
:101760008560a9000080fa00000006000800fa0069
:101770009560a8008560a900843e20000500200037
:1017800024079800350798001600370054532000ae
:1017900005002000048fbe001e0290001e02720091
:1017a00004f0a7000402ea000402ea004f22de006f
:1017b000044278000083eb008083eb001e0f43009f
:1017c0005e974b00e04f5200f3ff3a002e0290006c
:1017d000be02900061025200e0825a002407980085
:1017e000350798002e029000be029000e00f5200d4
:1017f000e08f5a00e5ff3a002222a9000080fa009b
:10180000000006000000fa0040992800bcff070015
:101810000080fa00000006000200fa00000f7800c5
:10182000c4f72f0064198800c822a800c802a900c4
:101830000002eb00841188000002eb009411880084
:101840001e027800c411880097c0a80031e2a800e9
:101850003342a8000080fa00000006000200fa00ef
:10186000000f78001e02780004007800e9fc0700f1
:101870000080fa00000006000200fa00004f780025
:101880001e02fb00040078001dfd07000080fa0026
:10189000000006000000fa0000000000a4fc0700a1
:1018a00000427800e04f5200fcff3a000080fa004e
:1018b000000006000600fa001007980021079800b3
:1018c0000002eb00040f7800060037001e027800cb
:1018d0009e029000048242008042eb00054a78009c
:1018e0001e0fe8002e029000140278009e0f520096
:1018f000f6ff3d002e0290008082eb00050a780082
:081900000080fa00000006005f
:020000040000fa
:10190800000800002200000000000000220800007b
:101918000400000002000000ffffff00ff000000bd
:0419280000000000bb
:020000040000fa
:0200000401f009
:04000000ffff0000fe
:020000040000fa
:0200000401f009
:04000800ffff0000f6
:020000040000fa
:0200000401f009
:04000c008000000070
:020000040000fa
:0200000401f009
:04001000bf0000002d
:020000040000fa
:0200000401f009
:040014005f00000089
:020000040000fa
:0200000401f009
:04001800fb000000e9
:020000040000fa
:0200000401f009
:04001c00c30000001d
:020000040000fa
:0200000401f009
:04002000ff000000dd
:00000001FF
